:100000000C9463000C948B000C948B000C948B006C
:100010000C948B000C948B000C948B000C948B0034
:100020000C948B000C948B000C948B000C948B0024
:100030000C948B000C948B000C948B000C948B0014
:100040000C9451050C948B000C94C1030C949B03ED
:100050000C948B000C948B000C948B000C948B00F4
:100060000C948B000C948B000000000023002600F1
:10007000290000000000240027002A0000000000E2
:10008000250028002B0004040404040404040202D4
:100090000202020203030303030301020408102007
:1000A0004080010204081020010204081020000012
:1000B0000008000201000003040700000000000027
:1000C00000006F0A3A0A11241FBECFEFD8E0DEBF4E
:1000D000CDBF22E0A2E7B1E001C01D92AA33B20772
:1000E000E1F711E0A0E0B1E0E4E6FEE102C0059036
:1000F0000D92A237B107D9F710E0C2E6D0E004C0F4
:100100002197FE010E94230DC136D107C9F70E9435
:10011000A7060C94250F0C940000CF92DF92EF926B
:10012000FF920F931F93CF93DF936C017A018B01A2
:10013000C0E0D0E0CE15DF0581F0D8016D918D01D2
:10014000D601ED91FC910190F081E02DC601099559
:10015000892B11F02196EECF7E01C701DF91CF915F
:100160001F910F91FF90EF90DF90CF900895089529
:1001700080E090E00895FC01538D448D252F30E000
:10018000842F90E0821B930B541710F0CF960895A4
:1001900001970895FC01918D828D981761F0828DF1
:1001A000DF01A80FB11D5D968C91928D9F5F9F73AB
:1001B000928F90E008958FEF9FEF0895FC01918D4D
:1001C000828D981731F0828DE80FF11D858D90E0BA
:1001D00008958FEF9FEF0895FC01918D228D892F57
:1001E00090E0805C9F4F821B91098F73992708953F
:1001F00086E791E00E94EC0021E0892B09F420E0E1
:10020000822F0895FC01848DDF01A80FB11DA35A30
:10021000BF4F2C91848D90E001968F739927848F26
:10022000A689B7892C93A089B1898C918370806449
:100230008C93938D848D981306C00288F389E02DEA
:1002400080818F7D80830895EF92FF920F931F939B
:10025000CF93DF93EC0181E0888F9B8D8C8D981379
:1002600005C0E889F989808185FD26C0F62E0B8DB1
:1002700010E00F5F1F4F0F731127E02E8C8DE812D7
:100280000CC00FB607FCFACFE889F989808185FF99
:10029000F5CFCE010E940201F1CF8B8DFE01E80F58
:1002A000F11DE35AFF4FF0829FB7F8940B8FEA8954
:1002B000FB89808180620AC09FB7F894EE89FF892C
:1002C0006083E889F98980818370806480839FBF1F
:1002D00081E090E0DF91CF911F910F91FF90EF901F
:1002E0000895CF93DF93EC01888D8823C9F0EA89C4
:1002F000FB89808185FD05C0A889B9898C9186FD1F
:100300000FC00FB607FCF5CF808185FFF2CFA8891B
:10031000B9898C9185FFEDCFCE010E940201E7CF14
:10032000DF91CF91089580E090E0892B29F00E9421
:10033000F80081110C9400000895DF92EF92FF9273
:100340000F931F93CF93DF93CDB7DEB7EE970FB622
:10035000F894DEBF0FBECDBF8C017B01D42E8FEF92
:10036000840FD801ED91FC91823020F40480F58156
:10037000E02D05C0411105C00280F381E02DC801C8
:100380000995D801ED91FC910084F185E02D20E0E4
:1003900041E0B701C8010995B5E0DB16F1F1D801DC
:1003A000ED91FC910280F381E02DC8010995B2E046
:1003B000DB1233C0D801ED91FC910084F185E02D72
:1003C00020E041E0BE016F5F7F4FC801099540E02A
:1003D000F8018485481708F5842F90E0880F991F4D
:1003E000F701E80FF91F21E030E02C0F3D1F820FCD
:1003F000931FD8011E962D913C911F97DC018D9182
:100400009C91B901681B790BCB0120813181820F4E
:10041000931F918380834F5FDBCFEE960FB6F894E6
:10042000DEBF0FBECDBFDF91CF911F910F91FF9027
:10043000EF90DF900895FC018081823061F018F424
:10044000813031F00895833049F0843049F00895C7
:100450006093B30008956093B400089567BD089554
:1004600068BD0895FF920F931F93CF93DF93EC0124
:100470008B01F22E1B821A821D821C821F821E8219
:1004800019861886198A188A403218F08FE18C87ED
:1004900001C04C878A859B85892B11F080E009C0BB
:1004A0008C8590E00E94290D9B878A87892BB1F764
:1004B00012C09C85891770F4282F30E0F801E20FF4
:1004C000F31F90814A855B85FA01E20FF31F908349
:1004D0008F5FEFCFFD86DF91CF911F910F91FF903E
:1004E0000895EF92FF920F93CF93DF93EC01790180
:1004F000202FE881F9813697808191818C0F9D1F93
:100500000E943202E881F981369780819181C80F7B
:10051000D91FFF86EE86DF91CF910F91FF90EF906C
:1005200008950E94100F0F931F93CF93DF93EC0158
:1005300088819981009729F02A813B812617370706
:1005400088F48B016F5F7F4F0E944A0E009761F025
:10055000998388831B830A832C813D81232B11F48B
:10056000FC01108281E001C080E0DF91CF911F91FA
:100570000F910895CF93DF93FC0185858F3F61F044
:10058000EF0161E00E94F00461E08D850E94940417
:100590008BE193E00197F1F7DF91CF910895CF932D
:1005A000DF93FC0185858F3F61F0EF0161E00E94E0
:1005B000F00460E08D850E9494048BE193E0019744
:1005C000F1F7DF91CF910895FC018081823049F0ED
:1005D00018F4813079F00895833031F0843039F0A7
:1005E000089524E031E008C027E035E005C026E0AA
:1005F00030E002C023E032E06230A9F0643029F13B
:100600006130B9F581E090E0AC0101C0440F3A954A
:10061000EAF730911302432B01C0880F2A95EAF7BD
:100620008095842322C081E090E0AC0101C0440F9A
:100630003A95EAF7342F309540911302342301C0E4
:10064000880F2A95EAF7832B10C041E050E0CA01D9
:1006500001C0880F3A95EAF701C0440F2A95EAF7DE
:10066000842B8095909113028923809313020C941C
:10067000C3040895EF92FF920F931F93CF93DF93DC
:100680006115710511F480E01CC041155105C1F0E0
:100690007B01EC018C819D818A01080F191FB80133
:1006A000CE010E949302882371F3288139818C81C5
:1006B0009D81B701820F931F0E941E0F1D830C8323
:1006C00081E0DF91CF911F910F91FF90EF900895FE
:1006D000CF93DF93EC0188819981009711F00E94FC
:1006E000C10D198218821D821C821B821A82DF9121
:1006F000CF910895EF92FF920F931F93CF93DF93C3
:10070000EC017B018A01BA010E949302811104C0AD
:10071000CE010E94680307C01D830C83B701888146
:1007200099810E941E0FCE01DF91CF911F910F91F1
:10073000FF90EF9008951F920F920FB60F92112421
:100740002F933F934F935F936F937F938F939F93D9
:10075000AF93BF93EF93FF9386E791E00E9402016E
:10076000FF91EF91BF91AF919F918F917F916F9189
:100770005F914F913F912F910F900FBE0F901F905F
:1007800018951F920F920FB60F9211242F938F93EB
:100790009F93EF93FF93E0918601F0918701808111
:1007A000E0918C01F0918D0182FD12C090818091C9
:1007B0008F018F5F8F7320919001821751F0E0912C
:1007C0008F01F0E0EA58FE4F958F80938F0101C0B2
:1007D0008081FF91EF919F918F912F910F900FBE8C
:1007E0000F901F901895FC01808191810C94C10D90
:1007F000FB0144815581608171810C943A03CF9350
:10080000DF93EC0141E050E06CE671E00E943A03B6
:10081000811103C0CE010E946803CE01DF91CF9108
:100820000895FB01DC0111961C921E9213961C92F6
:100830001E92129715961C921E9214978617970770
:1008400049F0608171816115710521F04481558104
:100850000C947A030895EF92FF920F931F93CF9316
:10086000DF93CDB7DEB762970FB6F894DEBF0FBE49
:10087000CDBF8C01CB01F80111821082138212824C
:10088000158214824AE09E012F5F3F4F7901B90122
:100890000E94170BF70101900020E9F73197AF0193
:1008A0004E195F09B701C8010E947A0362960FB61C
:1008B000F894DEBF0FBECDBFDF91CF911F910F9196
:1008C000FF90EF90089542E050E06EE671E086E719
:1008D00091E00C948D00833081F028F4813099F000
:1008E0008230A1F008958730A9F08830B9F08430C3
:1008F000D1F4809180008F7D03C0809180008F773C
:1009000080938000089584B58F7702C084B58F7D71
:1009100084BD08958091B0008F7703C08091B000AE
:100920008F7D8093B00008951F93CF93DF93282F7E
:1009300030E0F901E255FF4F8491F901E656FF4F8F
:10094000D491F901EA57FF4FC491CC23C1F0162F7F
:1009500081110E946B04EC2FF0E0EE0FFF1FE458B2
:10096000FF4FA591B4919FB7F894111104C08C91D9
:10097000D095D82302C0EC91DE2BDC939FBFDF9192
:10098000CF911F910895CF93DF9360E08CE00E9498
:10099000940460E088E00E949404C7E0D0E060E046
:1009A00084E00E9494048091130290E00C2E02C017
:1009B000959587950A94E2F780FF02C061E001C037
:1009C00060E088E00E94940461E084E00E94940466
:1009D000219728F761E08CE0DF91CF910C9494048B
:1009E000CF93DF9390E0FC01E656FF4F2491FC018A
:1009F000EA57FF4F8491882361F190E0880F991F97
:100A0000FC01EE58FF4FC591D491FC01E458FF4F13
:100A1000A591B491611109C09FB7F8948881209580
:100A200082238883EC912E230BC0623061F49FB740
:100A3000F8948881322F309583238883EC912E2B74
:100A40002C939FBF06C08FB7F894E8812E2B288384
:100A50008FBFDF91CF9108953FB7F8948091320214
:100A600090913302A0913402B091350226B5A89B33
:100A700005C02F3F19F00196A11DB11D3FBFBA2F30
:100A8000A92F982F8827820F911DA11DB11DBC0190
:100A9000CD0142E0660F771F881F991F4A95D1F755
:100AA00008951F920F920FB60F9211242F933F9328
:100AB0008F939F93AF93BF9380912E0290912F02BB
:100AC000A0913002B091310230912D0223E0230F2A
:100AD0002D3720F40196A11DB11D05C026E8230F76
:100AE0000296A11DB11D20932D0280932E0290939A
:100AF0002F02A0933002B093310280913202909184
:100B00003302A0913402B09135020196A11DB11DAE
:100B10008093320290933302A0933402B093350253
:100B2000BF91AF919F918F913F912F910F900FBEE9
:100B30000F901F9018953F924F925F926F927F9205
:100B40008F929F92AF92BF92CF92DF92EF92FF92DD
:100B50000F931F93CF93DF93DC01ED91FC913697B8
:100B60000190F081E02DE80FF91F0284F385E02D5C
:100B7000EF2B09F4CFC0622E742E6B01EC01F22E24
:100B8000E881F9813697A081B181AC0FBD1F1C9619
:100B90008C911C97F81670F50F2D10E01E968D9114
:100BA0009C911F97D801AA0FBB1FAC0DBD1D8D9343
:100BB0009C930190F081E02DEC0FFD1F0284F385E2
:100BC000E02DE00FF11F61E080810E94F004E881D8
:100BD000F98136970190F081E02DEC0FFD1F8285A1
:100BE0009385FC01E00FF11F61E080810E94940475
:100BF000F70CC6CF83E290E00197F1F7162DE8815C
:100C0000F98136970190F081E02DEC0FFD1F84856E
:100C10001817F0F4E12EF12C0284F385E02DEE0D8F
:100C2000FF1D60E080810E94F004E881F981369721
:100C30000190F081E02DEC0FFD1F82859385FC0172
:100C4000EE0DFF1D60E080810E949404170DD7CF48
:100C50000E942C054B015C010E942C05AB01BC01DC
:100C6000481959096A097B09E881F9813697019089
:100C7000F081E02DEC0FFD1F86859785A0E0B0E0A8
:100C8000481759076A077B0708F044C00E942C05E3
:100C90007B01E818F908562CE881F9813697019014
:100CA000F081E02DEC0FFD1F84855816A8F6052D68
:100CB00010E00284F385E02DE00FF11F608170E009
:100CC000FB01E255FF4F8491FB01E656FF4F449034
:100CD000FB01EA57FF4F3490332071F081110E94DD
:100CE0006B04E32DF0E0EE0FFF1FE859FF4FA591D5
:100CF000B491EC914E2261F4000F111FF601E00F48
:100D0000F11F80819181E816F90610F4F182E082EA
:100D1000570CC2CFDF91CF911F910F91FF90EF90B1
:100D2000DF90CF90BF90AF909F908F907F906F900B
:100D30005F904F903F900895DC01ED91FC913E97BC
:100D40000190F081E02D8E0F9F1F0C949B05CF9397
:100D5000DF93CDB7DEB7C756D1090FB6F894DEBF23
:100D60000FBECDBF789484B5826084BD84B58160A8
:100D700084BD85B5826085BD85B5816085BD809166
:100D80006E00816080936E001092810080918100DE
:100D900082608093810080918100816080938100D6
:100DA000809180008160809380008091B100846098
:100DB0008093B1008091B00081608093B0008091F9
:100DC0007A00846080937A0080917A0082608093B8
:100DD0007A0080917A00816080937A0080917A0015
:100DE000806880937A001092C100E0918601F091B2
:100DF000870182E08083E0918201F091830110827B
:100E0000E0918401F09185018FEC808310928E0136
:100E1000E0918A01F0918B0186E08083E091880166
:100E2000F0918901808180618083E0918801F09157
:100E30008901808188608083E0918801F091890137
:100E4000808180688083E0918801F09189018081B0
:100E50008F7D808341E150E06EE471E086E791E0B0
:100E60000E948D000E9463047AEFA72EB12C80911E
:100E70001B0290911C02892BC9F40091230210E0FF
:100E8000C801880F991F0E94290D90931C0280931E
:100E90001B02009709F4A9C0FC0180E090E08017D4
:100EA000910724F4119211920196F9CF80911902C1
:100EB00090911A02892B19F000E010E01DC00091FA
:100EC000230210E0C801880F991F0E94290D9093FA
:100ED0001A0280931902009709F487C02091250215
:100EE00030912602FC0180E090E08017910724F702
:100EF000219331930196F9CF41E0BE016F5B7F4FA3
:100F000087E192E00E949D0180902302912C9E0136
:100F10002F5F3F4FFE01EF5BFF4FAE014F5D5F4F15
:100F20003A01C90160E070E0681579054CF50115DA
:100F3000110589F0D301CD90DC90E080F180CE14D2
:100F4000DF0448F0DC01CD90DC90E080F180EC140F
:100F5000FD0448F00DC0E080F180D301ED92FC92D9
:100F60000115110579F7E080F180DC01ED92FC922A
:100F70006F5F7F4F02963296B2E06B0E711CD4CF3A
:100F80000F5F1F4F0A30110509F0B6CFA09119026B
:100F9000B0911A02E0901B02F0901C0280E090E0F9
:100FA0006091230270E086179707FCF4F9016191C4
:100FB00071919F01F701008111810617170710F445
:100FC00071836083FA0161917191AF010D911C9160
:100FD00011976017710718F411967C936E93019620
:100FE0001296F2E0EF0EF11CDBCF0E942C056B0194
:100FF0007C0144E1442E512C612C712C0E942C0563
:10100000DC01CB018C199D09AE09BF09883E9340D4
:10101000A105B10598F321E0421A51086108710851
:1010200038EEC30E33E0D31EE11CF11C4114510411
:101030006104710419F761E0A61AB10809F017CF2D
:1010400060E08BE292E00E941B0261E08BE292E0A2
:101050000E94E40260E089E292E00E941B0262E0EA
:1010600089E292E00E94E40298EE292E93E0392E64
:101070002AE0422E512C38E8632E33E1732E809102
:10108000190290911A02892B89F440912302CE0112
:1010900001966C01E12CF12CE0E0F0E0812C912C28
:1010A0005401A8961FAEA89750E065C080911B021E
:1010B00090911C02892B49F341E0BE016F5F7F4F85
:1010C00087E192E00E949D01C0902302D12CDE01B5
:1010D00011967D0180901B0290901C02A090190235
:1010E000B0901A0200E010E00C151D0574F6D40152
:1010F000ED91FD914D01D5018D919D915D01E81B13
:10110000F90BC1F0D7012D913C91A90160E070E08D
:101110009A01AB01281B390B41095109A8EEB3E034
:101120000E94DA0B9F0140E050E00E94F50C37FD71
:101130000AC002C020E030E0293EB3E03B072CF0BB
:1011400028EE33E002C020E030E0F7012193319334
:101150007F010F5F1F4FC8CFD6010D911D916D010B
:10116000093C11055CF40333110564F45F5F28E169
:10117000E21A2CEFF20A4513EFCF0FC0B1E0A896A8
:10118000BFAFA8979801D7010E94140D860E971E35
:10119000A81EB91EE00FF11FE9CFA8963FADA89792
:1011A00031111BC050E041505109A4EFB1E04A9FFA
:1011B000C0014B9F900D5A9F900D11242091270242
:1011C0003091280228173907ACF0429DC001439D99
:1011D000900D529D900D11240FC09F0140E050E0F2
:1011E000C501B4010E94D30CC90130932802209399
:1011F000270202C080E090E004EC19E0081B190B04
:101200008091740190917501F801E81BF90B28E1B8
:101210002E9FB0012F9F700D112429E0209FC00147
:10122000219F900D1124680F791F072E000C880B49
:10123000990B0E944E0B20E030E048EC52E40E94F3
:101240002B0C0E949D0C4B015C019B0110937501BE
:10125000009374016B01F2E3CF0ED11C82E3E82E00
:10126000F12CE818F908C80117FF04C0882799274E
:10127000801B910B813D97407CF05092730140920E
:101280007201232B29F0109228021092270204C029
:10129000709228026092270260917201709173012E
:1012A0006115710509F449C0CE0181960E942B0495
:1012B00023961FAE1EAE239725961FAE1EAE259712
:1012C00027961FAE1EAE27974DE050E060E671E016
:1012D000CE018F5B9F4F0E947A034DA15EA169A151
:1012E0007AA1CE018F5B9F4F0E943A03811105C006
:1012F000CE018F5B9F4F0E94680327964EAD5FAD76
:10130000279723966EAD7FAD239786E791E00E94E5
:101310008D000E946304CE018F5B9F4F0E94F303F8
:10132000CE0181960E94F303809172019091730126
:1013300001979093730180937201A3961FAE1EAE26
:10134000A397A5961FAE1EAEA597A7961FAE1EAE7D
:10135000A79740E050E060E771E0CE018F599F4FC2
:101360000E947A03B801CE018F5B9F4F0E942B042D
:10137000BE016F5B7F4FCE0181960E941104CE01AA
:1013800081960E94FF03BC01CE018F599F4F0E949E
:10139000F803CE0181960E94F303CE018F5B9F4F2D
:1013A0000E94F303B401CE018F5B9F4F0E942B0478
:1013B000BE016F5B7F4FCE0181960E941104CE016A
:1013C00081960E94FF03BC01CE018F599F4F0E945E
:1013D000F803CE0181960E94F303CE018F5B9F4FED
:1013E0000E94F303B601CE018F5B9F4F0E942B0436
:1013F000BE016F5B7F4FCE0181960E941104CE012A
:1014000081960E94FF03BC01CE018F599F4F0E941D
:10141000F803CE0181960E94F303CE018F5B9F4FAC
:101420000E94F303B701CE018F5B9F4F0E942B04F4
:10143000BE016F5B7F4FCE0181960E941104CE01E9
:1014400081960E94FF03BC01CE018F599F4F0E94DD
:10145000F803CE0181960E94F303CE018F5B9F4F6C
:101460000E94F303CE018F599F4F0E94F3030E9405
:10147000930105CE82E391E09093160280931502CA
:1014800082E291E0909318028093170280912102EA
:1014900090912202009711F00E94C10D80911B02D1
:1014A00090911C02009711F00E94C10D80911F02C3
:1014B00090912002009711F00E94C10D80911902B5
:1014C00090911A02009711F00E94C10D80911D02A7
:1014D00090911E02009711F00C94C10D0895EF92A7
:1014E000FF920F931F93CF93E6E7F1E013821282EE
:1014F00088EE93E0A0E0B0E084839583A683B78371
:1015000080E191E09183808385EC90E095878487EA
:1015100084EC90E09787868780EC90E0918B808BBD
:1015200081EC90E0938B828B82EC90E0958B848BA6
:1015300086EC90E0978B868B118E128E138E148E14
:1015400010921402EBE2F2E081E08083C4E0C183F8
:101550000E94FF0A80911302837F809313020E94EE
:10156000C30400EB10E0F80180818368808381EB85
:10157000E82EF12CF701C0831092B30061E08BE0FC
:101580000E94F004E9E2F2E082E08083C1830E94DD
:10159000FF0A809113028D7E809313020E94C30480
:1015A000F801808183628083F701C0831092B400C8
:1015B00061E083E00E94F004E5E1F2E0158214822C
:1015C0001782168211861086138612861586148657
:1015D00082E391E09183808384E491E0938382832A
:1015E00002E024EC39E046E060E071E0CF010E94C7
:1015F0007102CF911F910F91FF90EF90089561E0DC
:101600008CE00E94F00461E087E00E94F00461E059
:1016100088E00E94F00461E084E00E94F0041092EF
:1016200013020E94C30460E087E00C949404BB277B
:101630004A3031F4992322F4BDE2909581959F4F71
:101640000C94230BBB27FB015527AA27880F991F52
:10165000AA1FA41710F0A41B83955051B9F7A05DE1
:10166000AA3308F0A95DA193009779F7B111B1935E
:101670001192CB010C943C0BDC01FC01672F7191A2
:101680007723E1F7329704C07C916D937083629168
:10169000AE17BF07C8F30895E89409C097FB3EF45E
:1016A00090958095709561957F4F8F4F9F4F9923AF
:1016B000A9F0F92F96E9BB279395F695879577952D
:1016C0006795B795F111F8CFFAF4BB0F11F460FFED
:1016D0001BC06F5F7F4F8F4F9F4F16C0882311F045
:1016E00096E911C0772321F09EE8872F762F05C059
:1016F000662371F096E8862F70E060E02AF09A95F4
:10170000660F771F881FDAF7880F9695879597F9E8
:10171000089597F99F6780E870E060E008959FEF73
:1017200080EC089500240A94161617061806090678
:10173000089500240A941216130614060506089547
:10174000092E0394000C11F4882352F0BB0F40F4CF
:10175000BF2B11F460FF04C06F5F7F4F8F4F9F4F0F
:10176000089557FD9058440F551F59F05F3F71F091
:101770004795880F97FB991F61F09F3F79F08795F8
:101780000895121613061406551FF2CF4695F1DF81
:1017900008C0161617061806991FF1CF8695710511
:1017A000610508940895E894BB2766277727CB0145
:1017B00097F908950E941C0CA59F900DB49F900D61
:1017C000A49F800D911D112408952F923F924F9256
:1017D0005F926F927F928F929F92AF92BF92CF92C1
:1017E000DF92EF92FF920F931F93CF93DF93CDB7CA
:1017F000DEB7CA1BDB0B0FB6F894DEBF0FBECDBF42
:1018000009942A88398848885F846E847D848C8412
:101810009B84AA84B984C884DF80EE80FD800C811B
:101820001B81AA81B981CE0FD11D0FB6F894DEBFFE
:101830000FBECDBFED010895A29FB001B39FC001BF
:10184000A39F700D811D1124911DB29F700D811DEC
:101850001124911D08950E943F0C0C94A00B0E942E
:10186000990B58F00E94920B40F029F45F3F29F049
:101870000C94890B51110C94D40B0C948F0B0E9477
:10188000B10B68F39923B1F3552391F3951B550BD5
:10189000BB27AA2762177307840738F09F5F5F4F43
:1018A000220F331F441FAA1FA9F335D00E2E3AF082
:1018B000E0E832D091505040E695001CCAF72BD09A
:1018C000FE2F29D0660F771F881FBB1F26173707EB
:1018D0004807AB07B0E809F0BB0B802DBF01FF271D
:1018E00093585F4F3AF09E3F510578F00C94890B66
:1018F0000C94D40B5F3FE4F3983ED4F38695779530
:101900006795B795F7959F5FC9F7880F911D9695D5
:10191000879597F90895E1E0660F771F881FBB1F31
:10192000621773078407BA0720F0621B730B840BDE
:10193000BA0BEE1F88F7E09508950E94A40C6894F6
:10194000B1110C94D40B08950E94B90B88F09F57E5
:1019500098F0B92F9927B751B0F0E1F0660F771FD3
:10196000881F991F1AF0BA95C9F714C0B13091F0C9
:101970000E94D30BB1E008950C94D30B672F782FFE
:101980008827B85F39F0B93FCCF38695779567958E
:10199000B395D9F73EF490958095709561957F4FFA
:1019A0008F4F9F4F0895A1E21A2EAA1BBB1BFD016A
:1019B0000DC0AA1FBB1FEE1FFF1FA217B307E4072E
:1019C000F50720F0A21BB30BE40BF50B661F771F86
:1019D000881F991F1A9469F7609570958095909566
:1019E0009B01AC01BD01CF010895052E97FB1EF4AC
:1019F00000940E940C0D57FD07D00E94D30C07FCE9
:101A000003D04EF40C940C0D5095409530952195D3
:101A10003F4F4F4F5F4F089590958095709561951A
:101A20007F4F8F4F9F4F08950E941C0C332312F459
:101A30008A1B9B0B0C941E0D0E941C0CB7FF089573
:101A4000821B930B0895EE0FFF1F0590F491E02D7C
:101A500009940F931F93CF93DF938230910510F475
:101A600082E090E0E0913802F091390220E030E02D
:101A7000A0E0B0E0309719F14081518102811381DB
:101A800048175907C8F08417950769F4109731F083
:101A900012960C93129713961C9327C0009338024A
:101AA0001093390222C02115310519F0421753074E
:101AB00018F49A01BD01EF01DF01F801DBCF211518
:101AC0003105F9F0281B390B2430310580F48A8167
:101AD0009B816115710521F0FB019383828304C012
:101AE0009093390280933802FE01329644C0FE0181
:101AF000E20FF31F81939193225031093983288398
:101B00003AC02091360230913702232B41F42091C4
:101B10000801309109013093370220933602209159
:101B20000601309107012115310541F42DB73EB76B
:101B300040910A0150910B01241B350BE0913602B4
:101B4000F0913702E217F307A0F42E1B3F0B281782
:101B5000390778F0AC014E5F5F4F2417350748F026
:101B60004E0F5F1F5093370240933602819391933B
:101B700002C0E0E0F0E0CF01DF91CF911F910F9123
:101B80000895CF93DF93009709F481C0FC01329749
:101B900013821282A0913802B0913902109781F419
:101BA00020813181820F931F2091360230913702BC
:101BB0002817390751F5F0933702E093360267C0D2
:101BC000ED0120E030E0CE17DF0740F44A815B8171
:101BD0009E0141155105F1F0EA01F5CFD383C2838F
:101BE00040815181840F951FC817D90759F4888106
:101BF0009981840F951F0296918380838A819B81AE
:101C0000938382832115310529F4F0933902E093FF
:101C100038023DC0E901FB83EA8349915991C40F21
:101C2000D51FEC17FD0761F480819181840F951F0A
:101C30000296E90199838883828193819B838A83B9
:101C4000E0E0F0E012968D919C911397009719F0C7
:101C5000FD01DC01F7CF8D919C9111979D012E5FC5
:101C60003F4F820F931F2091360230913702281781
:101C7000390769F4309729F410923902109238022A
:101C800002C013821282B0933702A0933602DF9112
:101C9000CF910895A0E0B0E0E0E5FEE00C94E90B00
:101CA000EC01009721F4CB010E94290DB4C0FC0186
:101CB000E60FF71F9C0122503109E217F30708F4E1
:101CC000A8C0D9010D911C91119706171707B0F004
:101CD0000530110508F49BC0C801049786179707C3
:101CE00008F495C002501109061B170B01931193BC
:101CF0006D937C93CF010E94C10D89C05B01A01A36
:101D0000B10A4C01800E911EA0913802B0913902A7
:101D1000612C712CE12CF12C109709F446C08D91A7
:101D20009C911197A815B905B1F56C0142E0C40E5C
:101D3000D11CCA14DB0478F14C018A189B08640199
:101D400042E0C40ED11C1296BC9012971396AC912F
:101D5000B5E0CB16D10440F0B282A3839182808299
:101D6000D9016D937C9309C00E5F1F4F800F911FA7
:101D7000F90191838083EB2DFA2FE114F10431F006
:101D8000D7011396FC93EE93129741C0F09339025A
:101D9000E09338023CC06816790608F43C017D01E6
:101DA00012960D90BC91A02DB7CF809136029091E4
:101DB000370288169906E1F466167706C8F4809112
:101DC000060190910701009741F48DB79EB74091AD
:101DD0000A0150910B01841B950BE817F907C8F411
:101DE000F0933702E0933602F901718360830FC0EC
:101DF000CB010E94290D7C01009759F0A801BE017A
:101E00000E94150FCE010E94C10DC70104C0CE0172
:101E100002C080E090E0CDB7DEB7EEE00C94050C98
:101E200081E090E0F8940C94250FFB01DC0102C0E6
:101E300001900D9241505040D8F70895FB01DC010C
:101E400001900D920020E1F7089510E0C2E6D0E085
:101E500004C0FE010E94230D2196C336D107C9F7A5
:041E6000F894FFCF24
:101E6400131211100F0E00003A028000000000004F
:101E740024018D00BB007101EC00CA00DE000000EB
:101E840000009D01CF02BA0232029102020000005A
:101E9400000071029B05FEFF00000000000000002E
:101EA400FEFF00009D01CF02BA0232029C06626569
:101EB40067696E2063616C6962726174696F6E0038
:101EC40045585452454D45205455524E20000D0A54
:021ED40000000C
:107E0000112484B714BE81FFF0D085E080938100F7
:107E100082E08093C00088E18093C10086E0809377
:107E2000C20080E18093C4008EE0C9D0259A86E02C
:107E300020E33CEF91E0309385002093840096BBD3
:107E4000B09BFECF1D9AA8958150A9F7CC24DD24C4
:107E500088248394B5E0AB2EA1E19A2EF3E0BF2EE7
:107E6000A2D0813461F49FD0082FAFD0023811F036
:107E7000013811F484E001C083E08DD089C08234E0
:107E800011F484E103C0853419F485E0A6D080C0E4
:107E9000853579F488D0E82EFF2485D0082F10E0AE
:107EA000102F00270E291F29000F111F8ED06801E7
:107EB0006FC0863521F484E090D080E0DECF843638
:107EC00009F040C070D06FD0082F6DD080E0C81688
:107ED00080E7D80618F4F601B7BEE895C0E0D1E017
:107EE00062D089930C17E1F7F0E0CF16F0E7DF06D8
:107EF00018F0F601B7BEE89568D007B600FCFDCFD4
:107F0000A601A0E0B1E02C9130E011968C91119780
:107F100090E0982F8827822B932B1296FA010C0160
:107F200087BEE89511244E5F5F4FF1E0A038BF0790
:107F300051F7F601A7BEE89507B600FCFDCF97BE46
:107F4000E89526C08437B1F42ED02DD0F82E2BD052
:107F50003CD0F601EF2C8F010F5F1F4F84911BD097
:107F6000EA94F801C1F70894C11CD11CFA94CF0C13
:107F7000D11C0EC0853739F428D08EE10CD085E9AC
:107F80000AD08FE07ACF813511F488E018D01DD067
:107F900080E101D065CF982F8091C00085FFFCCF94
:107FA0009093C60008958091C00087FFFCCF809118
:107FB000C00084FD01C0A8958091C6000895E0E648
:107FC000F0E098E1908380830895EDDF803219F02E
:107FD00088E0F5DFFFCF84E1DECF1F93182FE3DFCA
:107FE0001150E9F7F2DF1F91089580E0E8DFEE27F6
:047FF000FF270994CA
:027FFE00040479
:0400000300007E007B
:00000001FF
